{
  "_format": "hh-sol-artifact-1",
  "contractName": "DistributedLedger",
  "sourceName": "contracts/DistributedLedger.sol",
  "abi": [
    {
      "inputs": [],
      "stateMutability": "nonpayable",
      "type": "constructor"
    },
    {
      "inputs": [
        {
          "internalType": "address",
          "name": "_receiver",
          "type": "address"
        },
        {
          "internalType": "uint256",
          "name": "_amount",
          "type": "uint256"
        },
        {
          "internalType": "string",
          "name": "_transactionId",
          "type": "string"
        }
      ],
      "name": "addTransaction",
      "outputs": [],
      "stateMutability": "nonpayable",
      "type": "function"
    },
    {
      "inputs": [],
      "name": "getNodeIdentifier",
      "outputs": [
        {
          "internalType": "bytes32",
          "name": "",
          "type": "bytes32"
        }
      ],
      "stateMutability": "view",
      "type": "function"
    },
    {
      "inputs": [
        {
          "internalType": "uint256",
          "name": "index",
          "type": "uint256"
        }
      ],
      "name": "getTransaction",
      "outputs": [
        {
          "components": [
            {
              "internalType": "uint256",
              "name": "timestamp",
              "type": "uint256"
            },
            {
              "internalType": "address",
              "name": "sender",
              "type": "address"
            },
            {
              "internalType": "address",
              "name": "receiver",
              "type": "address"
            },
            {
              "internalType": "uint256",
              "name": "amount",
              "type": "uint256"
            },
            {
              "internalType": "string",
              "name": "transactionId",
              "type": "string"
            }
          ],
          "internalType": "struct DistributedLedger.Transaction",
          "name": "",
          "type": "tuple"
        }
      ],
      "stateMutability": "view",
      "type": "function"
    },
    {
      "inputs": [],
      "name": "getTransactionCount",
      "outputs": [
        {
          "internalType": "uint256",
          "name": "",
          "type": "uint256"
        }
      ],
      "stateMutability": "view",
      "type": "function"
    },
    {
      "inputs": [
        {
          "internalType": "address",
          "name": "",
          "type": "address"
        }
      ],
      "name": "nodeIdentifiers",
      "outputs": [
        {
          "internalType": "bytes32",
          "name": "",
          "type": "bytes32"
        }
      ],
      "stateMutability": "view",
      "type": "function"
    },
    {
      "inputs": [
        {
          "internalType": "uint256",
          "name": "",
          "type": "uint256"
        }
      ],
      "name": "transactions",
      "outputs": [
        {
          "internalType": "uint256",
          "name": "timestamp",
          "type": "uint256"
        },
        {
          "internalType": "address",
          "name": "sender",
          "type": "address"
        },
        {
          "internalType": "address",
          "name": "receiver",
          "type": "address"
        },
        {
          "internalType": "uint256",
          "name": "amount",
          "type": "uint256"
        },
        {
          "internalType": "string",
          "name": "transactionId",
          "type": "string"
        }
      ],
      "stateMutability": "view",
      "type": "function"
    }
  ],
  "bytecode": "0x608060405234801561001057600080fd5b503360405160200161002291906100fa565b60405160208183030381529060405280519060200120600160003373ffffffffffffffffffffffffffffffffffffffff1673ffffffffffffffffffffffffffffffffffffffff16815260200190815260200160002081905550610115565b600073ffffffffffffffffffffffffffffffffffffffff82169050919050565b60006100ab82610080565b9050919050565b60008160601b9050919050565b60006100ca826100b2565b9050919050565b60006100dc826100bf565b9050919050565b6100f46100ef826100a0565b6100d1565b82525050565b600061010682846100e3565b60148201915081905092915050565b610e12806101246000396000f3fe608060405234801561001057600080fd5b50600436106100625760003560e01c8063090c85a4146100675780632e7700f01461008357806333ea3dc8146100a1578063991901e2146100d15780639ace38c2146100ef578063b20b7ee214610123575b600080fd5b610081600480360381019061007c919061095c565b610153565b005b61008b610322565b60405161009891906109da565b60405180910390f35b6100bb60048036038101906100b691906109f5565b61032e565b6040516100c89190610b3e565b60405180910390f35b6100d9610503565b6040516100e69190610b79565b60405180910390f35b610109600480360381019061010491906109f5565b61054a565b60405161011a959493929190610bed565b60405180910390f35b61013d60048036038101906101389190610c47565b610658565b60405161014a9190610b79565b60405180910390f35b6000801b600160003373ffffffffffffffffffffffffffffffffffffffff1673ffffffffffffffffffffffffffffffffffffffff1681526020019081526020016000205414156101d8576040517f08c379a00000000000000000000000000000000000000000000000000000000081526004016101cf90610cc0565b60405180910390fd5b60006040518060a001604052804281526020013373ffffffffffffffffffffffffffffffffffffffff1681526020018573ffffffffffffffffffffffffffffffffffffffff16815260200184815260200183815250905060008190806001815401808255809150506001900390600052602060002090600502016000909190919091506000820151816000015560208201518160010160006101000a81548173ffffffffffffffffffffffffffffffffffffffff021916908373ffffffffffffffffffffffffffffffffffffffff16021790555060408201518160020160006101000a81548173ffffffffffffffffffffffffffffffffffffffff021916908373ffffffffffffffffffffffffffffffffffffffff160217905550606082015181600301556080820151816004019080519060200190610319929190610670565b50505050505050565b60008080549050905090565b6103366106f6565b600080549050821061037d576040517f08c379a000000000000000000000000000000000000000000000000000000000815260040161037490610d2c565b60405180910390fd5b6000828154811061039157610390610d4c565b5b90600052602060002090600502016040518060a0016040529081600082015481526020016001820160009054906101000a900473ffffffffffffffffffffffffffffffffffffffff1673ffffffffffffffffffffffffffffffffffffffff1673ffffffffffffffffffffffffffffffffffffffff1681526020016002820160009054906101000a900473ffffffffffffffffffffffffffffffffffffffff1673ffffffffffffffffffffffffffffffffffffffff1673ffffffffffffffffffffffffffffffffffffffff1681526020016003820154815260200160048201805461047a90610daa565b80601f01602080910402602001604051908101604052809291908181526020018280546104a690610daa565b80156104f35780601f106104c8576101008083540402835291602001916104f3565b820191906000526020600020905b8154815290600101906020018083116104d657829003601f168201915b5050505050815250509050919050565b6000600160003373ffffffffffffffffffffffffffffffffffffffff1673ffffffffffffffffffffffffffffffffffffffff16815260200190815260200160002054905090565b6000818154811061055a57600080fd5b90600052602060002090600502016000915090508060000154908060010160009054906101000a900473ffffffffffffffffffffffffffffffffffffffff16908060020160009054906101000a900473ffffffffffffffffffffffffffffffffffffffff16908060030154908060040180546105d590610daa565b80601f016020809104026020016040519081016040528092919081815260200182805461060190610daa565b801561064e5780601f106106235761010080835404028352916020019161064e565b820191906000526020600020905b81548152906001019060200180831161063157829003601f168201915b5050505050905085565b60016020528060005260406000206000915090505481565b82805461067c90610daa565b90600052602060002090601f01602090048101928261069e57600085556106e5565b82601f106106b757805160ff19168380011785556106e5565b828001600101855582156106e5579182015b828111156106e45782518255916020019190600101906106c9565b5b5090506106f29190610751565b5090565b6040518060a0016040528060008152602001600073ffffffffffffffffffffffffffffffffffffffff168152602001600073ffffffffffffffffffffffffffffffffffffffff16815260200160008152602001606081525090565b5b8082111561076a576000816000905550600101610752565b5090565b6000604051905090565b600080fd5b600080fd5b600073ffffffffffffffffffffffffffffffffffffffff82169050919050565b60006107ad82610782565b9050919050565b6107bd816107a2565b81146107c857600080fd5b50565b6000813590506107da816107b4565b92915050565b6000819050919050565b6107f3816107e0565b81146107fe57600080fd5b50565b600081359050610810816107ea565b92915050565b600080fd5b600080fd5b6000601f19601f8301169050919050565b7f4e487b7100000000000000000000000000000000000000000000000000000000600052604160045260246000fd5b61086982610820565b810181811067ffffffffffffffff8211171561088857610887610831565b5b80604052505050565b600061089b61076e565b90506108a78282610860565b919050565b600067ffffffffffffffff8211156108c7576108c6610831565b5b6108d082610820565b9050602081019050919050565b82818337600083830152505050565b60006108ff6108fa846108ac565b610891565b90508281526020810184848401111561091b5761091a61081b565b5b6109268482856108dd565b509392505050565b600082601f83011261094357610942610816565b5b81356109538482602086016108ec565b91505092915050565b60008060006060848603121561097557610974610778565b5b6000610983868287016107cb565b935050602061099486828701610801565b925050604084013567ffffffffffffffff8111156109b5576109b461077d565b5b6109c18682870161092e565b9150509250925092565b6109d4816107e0565b82525050565b60006020820190506109ef60008301846109cb565b92915050565b600060208284031215610a0b57610a0a610778565b5b6000610a1984828501610801565b91505092915050565b610a2b816107e0565b82525050565b610a3a816107a2565b82525050565b600081519050919050565b600082825260208201905092915050565b60005b83811015610a7a578082015181840152602081019050610a5f565b83811115610a89576000848401525b50505050565b6000610a9a82610a40565b610aa48185610a4b565b9350610ab4818560208601610a5c565b610abd81610820565b840191505092915050565b600060a083016000830151610ae06000860182610a22565b506020830151610af36020860182610a31565b506040830151610b066040860182610a31565b506060830151610b196060860182610a22565b5060808301518482036080860152610b318282610a8f565b9150508091505092915050565b60006020820190508181036000830152610b588184610ac8565b905092915050565b6000819050919050565b610b7381610b60565b82525050565b6000602082019050610b8e6000830184610b6a565b92915050565b610b9d816107a2565b82525050565b600082825260208201905092915050565b6000610bbf82610a40565b610bc98185610ba3565b9350610bd9818560208601610a5c565b610be281610820565b840191505092915050565b600060a082019050610c0260008301886109cb565b610c0f6020830187610b94565b610c1c6040830186610b94565b610c2960608301856109cb565b8181036080830152610c3b8184610bb4565b90509695505050505050565b600060208284031215610c5d57610c5c610778565b5b6000610c6b848285016107cb565b91505092915050565b7f496e76616c6964206e6f64652e00000000000000000000000000000000000000600082015250565b6000610caa600d83610ba3565b9150610cb582610c74565b602082019050919050565b60006020820190508181036000830152610cd981610c9d565b9050919050565b7f5472616e73616374696f6e20696e646578206f7574206f6620626f756e647300600082015250565b6000610d16601f83610ba3565b9150610d2182610ce0565b602082019050919050565b60006020820190508181036000830152610d4581610d09565b9050919050565b7f4e487b7100000000000000000000000000000000000000000000000000000000600052603260045260246000fd5b7f4e487b7100000000000000000000000000000000000000000000000000000000600052602260045260246000fd5b60006002820490506001821680610dc257607f821691505b60208210811415610dd657610dd5610d7b565b5b5091905056fea2646970667358221220b5480e55f175ba1b57f4c539f44d1e0af40e23477396ad78b15c539538ba925164736f6c634300080a0033",
  "linkReferences": {},
  "deployedLinkReferences": {}
}